{
  "_format": "hh-sol-artifact-1",
  "contractName": "ArenaVault",
  "sourceName": "contracts/ArenaVault.sol",
  "abi": [
    {
      "inputs": [
        {
          "internalType": "address",
          "name": "_usdc",
          "type": "address"
        },
        {
          "internalType": "address",
          "name": "_operator",
          "type": "address"
        }
      ],
      "stateMutability": "nonpayable",
      "type": "constructor"
    },
    {
      "inputs": [],
      "name": "ReentrancyGuardReentrantCall",
      "type": "error"
    },
    {
      "inputs": [
        {
          "internalType": "address",
          "name": "token",
          "type": "address"
        }
      ],
      "name": "SafeERC20FailedOperation",
      "type": "error"
    },
    {
      "anonymous": false,
      "inputs": [
        {
          "indexed": true,
          "internalType": "bytes32",
          "name": "arenaId",
          "type": "bytes32"
        },
        {
          "indexed": true,
          "internalType": "address",
          "name": "user",
          "type": "address"
        },
        {
          "indexed": false,
          "internalType": "uint256",
          "name": "amount",
          "type": "uint256"
        }
      ],
      "name": "Deposited",
      "type": "event"
    },
    {
      "anonymous": false,
      "inputs": [
        {
          "indexed": true,
          "internalType": "bytes32",
          "name": "arenaId",
          "type": "bytes32"
        },
        {
          "indexed": true,
          "internalType": "address",
          "name": "user",
          "type": "address"
        },
        {
          "indexed": false,
          "internalType": "uint256",
          "name": "amount",
          "type": "uint256"
        }
      ],
      "name": "EmergencyWithdraw",
      "type": "event"
    },
    {
      "anonymous": false,
      "inputs": [
        {
          "indexed": true,
          "internalType": "bytes32",
          "name": "arenaId",
          "type": "bytes32"
        },
        {
          "indexed": false,
          "internalType": "address[]",
          "name": "agentWallets",
          "type": "address[]"
        },
        {
          "indexed": false,
          "internalType": "uint256[]",
          "name": "amounts",
          "type": "uint256[]"
        }
      ],
      "name": "FundsRouted",
      "type": "event"
    },
    {
      "anonymous": false,
      "inputs": [
        {
          "indexed": true,
          "internalType": "address",
          "name": "oldOperator",
          "type": "address"
        },
        {
          "indexed": true,
          "internalType": "address",
          "name": "newOperator",
          "type": "address"
        }
      ],
      "name": "OperatorChanged",
      "type": "event"
    },
    {
      "anonymous": false,
      "inputs": [
        {
          "indexed": true,
          "internalType": "bytes32",
          "name": "arenaId",
          "type": "bytes32"
        },
        {
          "indexed": true,
          "internalType": "address",
          "name": "recipient",
          "type": "address"
        },
        {
          "indexed": false,
          "internalType": "uint256",
          "name": "amount",
          "type": "uint256"
        }
      ],
      "name": "PayoutDistributed",
      "type": "event"
    },
    {
      "inputs": [],
      "name": "EMERGENCY_TIMEOUT",
      "outputs": [
        {
          "internalType": "uint256",
          "name": "",
          "type": "uint256"
        }
      ],
      "stateMutability": "view",
      "type": "function"
    },
    {
      "inputs": [],
      "name": "MINIMUM_ENTRY",
      "outputs": [
        {
          "internalType": "uint256",
          "name": "",
          "type": "uint256"
        }
      ],
      "stateMutability": "view",
      "type": "function"
    },
    {
      "inputs": [
        {
          "internalType": "bytes32",
          "name": "",
          "type": "bytes32"
        }
      ],
      "name": "arenaStartTime",
      "outputs": [
        {
          "internalType": "uint256",
          "name": "",
          "type": "uint256"
        }
      ],
      "stateMutability": "view",
      "type": "function"
    },
    {
      "inputs": [
        {
          "internalType": "bytes32",
          "name": "arenaId",
          "type": "bytes32"
        }
      ],
      "name": "deposit",
      "outputs": [],
      "stateMutability": "nonpayable",
      "type": "function"
    },
    {
      "inputs": [
        {
          "internalType": "bytes32",
          "name": "arenaId",
          "type": "bytes32"
        },
        {
          "internalType": "uint256",
          "name": "amount",
          "type": "uint256"
        }
      ],
      "name": "depositAmount",
      "outputs": [],
      "stateMutability": "nonpayable",
      "type": "function"
    },
    {
      "inputs": [
        {
          "internalType": "bytes32",
          "name": "",
          "type": "bytes32"
        },
        {
          "internalType": "address",
          "name": "",
          "type": "address"
        }
      ],
      "name": "deposits",
      "outputs": [
        {
          "internalType": "uint256",
          "name": "",
          "type": "uint256"
        }
      ],
      "stateMutability": "view",
      "type": "function"
    },
    {
      "inputs": [
        {
          "internalType": "bytes32",
          "name": "arenaId",
          "type": "bytes32"
        },
        {
          "internalType": "address[]",
          "name": "recipients",
          "type": "address[]"
        },
        {
          "internalType": "uint256[]",
          "name": "amounts",
          "type": "uint256[]"
        }
      ],
      "name": "distributePayout",
      "outputs": [],
      "stateMutability": "nonpayable",
      "type": "function"
    },
    {
      "inputs": [
        {
          "internalType": "bytes32",
          "name": "arenaId",
          "type": "bytes32"
        }
      ],
      "name": "emergencyWithdraw",
      "outputs": [],
      "stateMutability": "nonpayable",
      "type": "function"
    },
    {
      "inputs": [
        {
          "internalType": "bytes32",
          "name": "",
          "type": "bytes32"
        }
      ],
      "name": "fundsRouted",
      "outputs": [
        {
          "internalType": "bool",
          "name": "",
          "type": "bool"
        }
      ],
      "stateMutability": "view",
      "type": "function"
    },
    {
      "inputs": [
        {
          "internalType": "bytes32",
          "name": "arenaId",
          "type": "bytes32"
        },
        {
          "internalType": "address",
          "name": "user",
          "type": "address"
        }
      ],
      "name": "getDeposit",
      "outputs": [
        {
          "internalType": "uint256",
          "name": "",
          "type": "uint256"
        }
      ],
      "stateMutability": "view",
      "type": "function"
    },
    {
      "inputs": [
        {
          "internalType": "bytes32",
          "name": "arenaId",
          "type": "bytes32"
        }
      ],
      "name": "getPooledFunds",
      "outputs": [
        {
          "internalType": "uint256",
          "name": "",
          "type": "uint256"
        }
      ],
      "stateMutability": "view",
      "type": "function"
    },
    {
      "inputs": [
        {
          "internalType": "bytes32",
          "name": "arenaId",
          "type": "bytes32"
        }
      ],
      "name": "isArenaStarted",
      "outputs": [
        {
          "internalType": "bool",
          "name": "",
          "type": "bool"
        }
      ],
      "stateMutability": "view",
      "type": "function"
    },
    {
      "inputs": [
        {
          "internalType": "bytes32",
          "name": "arenaId",
          "type": "bytes32"
        }
      ],
      "name": "isPayoutDone",
      "outputs": [
        {
          "internalType": "bool",
          "name": "",
          "type": "bool"
        }
      ],
      "stateMutability": "view",
      "type": "function"
    },
    {
      "inputs": [],
      "name": "operator",
      "outputs": [
        {
          "internalType": "address",
          "name": "",
          "type": "address"
        }
      ],
      "stateMutability": "view",
      "type": "function"
    },
    {
      "inputs": [
        {
          "internalType": "bytes32",
          "name": "",
          "type": "bytes32"
        }
      ],
      "name": "payoutDistributed",
      "outputs": [
        {
          "internalType": "bool",
          "name": "",
          "type": "bool"
        }
      ],
      "stateMutability": "view",
      "type": "function"
    },
    {
      "inputs": [
        {
          "internalType": "bytes32",
          "name": "",
          "type": "bytes32"
        }
      ],
      "name": "pooledFunds",
      "outputs": [
        {
          "internalType": "uint256",
          "name": "",
          "type": "uint256"
        }
      ],
      "stateMutability": "view",
      "type": "function"
    },
    {
      "inputs": [
        {
          "internalType": "uint256",
          "name": "amount",
          "type": "uint256"
        }
      ],
      "name": "returnFunds",
      "outputs": [],
      "stateMutability": "nonpayable",
      "type": "function"
    },
    {
      "inputs": [
        {
          "internalType": "bytes32",
          "name": "arenaId",
          "type": "bytes32"
        },
        {
          "internalType": "address[]",
          "name": "agentWallets",
          "type": "address[]"
        },
        {
          "internalType": "uint256[]",
          "name": "amounts",
          "type": "uint256[]"
        }
      ],
      "name": "routeFunds",
      "outputs": [],
      "stateMutability": "nonpayable",
      "type": "function"
    },
    {
      "inputs": [
        {
          "internalType": "address",
          "name": "newOperator",
          "type": "address"
        }
      ],
      "name": "setOperator",
      "outputs": [],
      "stateMutability": "nonpayable",
      "type": "function"
    },
    {
      "inputs": [],
      "name": "usdc",
      "outputs": [
        {
          "internalType": "address",
          "name": "",
          "type": "address"
        }
      ],
      "stateMutability": "view",
      "type": "function"
    }
  ],
  "bytecode": "0x60a06040523480156200001157600080fd5b506040516200182438038062001824833981016040819052620000349162000152565b60017f9b779b17422d0df92223018b32b4d1fa46e071723d6817e2486d003becc55f00556001600160a01b038216620000b45760405162461bcd60e51b815260206004820152601560248201527f4172656e615661756c743a207a65726f2075736463000000000000000000000060448201526064015b60405180910390fd5b6001600160a01b0381166200010c5760405162461bcd60e51b815260206004820152601960248201527f4172656e615661756c743a207a65726f206f70657261746f72000000000000006044820152606401620000ab565b6001600160a01b03918216608052600080546001600160a01b031916919092161790556200018a565b80516001600160a01b03811681146200014d57600080fd5b919050565b600080604083850312156200016657600080fd5b620001718362000135565b9150620001816020840162000135565b90509250929050565b60805161164d620001d7600039600081816101bb0152818161043601528181610516015281816107170152818161081901528181610ae301528181610b9e0152610c8e015261164d6000f3fe608060405234801561001057600080fd5b506004361061012c5760003560e01c806377388e19116100ad578063b733f15511610071578063b733f155146102e2578063c3ca17d914610302578063d0f4089a14610322578063e7229a8514610335578063e9929c951461034857600080fd5b806377388e191461026c5780637f2640761461028f578063a3a7c1f814610299578063b214faa5146102bc578063b3ab15fb146102cf57600080fd5b806345755dd6116100f457806345755dd6146101f55780634f1c2c3114610208578063570ca735146102335780636de1bdfe1461024657806375870d651461025957600080fd5b80630ec9212f14610131578063118279f2146101695780631f5025711461017e57806339b15b54146101965780633e413bee146101b6575b600080fd5b61015461013f366004611290565b60009081526004602052604090205460ff1690565b60405190151581526020015b60405180910390f35b61017c6101773660046112a9565b61036b565b005b610188620186a081565b604051908152602001610160565b6101886101a4366004611290565b60009081526002602052604090205490565b6101dd7f000000000000000000000000000000000000000000000000000000000000000081565b6040516001600160a01b039091168152602001610160565b61017c610203366004611290565b610501565b6101886102163660046112e7565b600160209081526000928352604080842090915290825290205481565b6000546101dd906001600160a01b031681565b61017c61025436600461135f565b610558565b61017c610267366004611290565b61092b565b61015461027a366004611290565b60046020526000908152604090205460ff1681565b6101886202a30081565b6101546102a7366004611290565b60009081526005602052604090205460ff1690565b61017c6102ca366004611290565b610c17565b61017c6102dd3660046113d9565b610d56565b6101886102f0366004611290565b60036020526000908152604090205481565b610188610310366004611290565b60026020526000908152604090205481565b6101886103303660046112e7565b610e31565b61017c61034336600461135f565b610e5b565b610154610356366004611290565b60056020526000908152604090205460ff1681565b6103736110f4565b620186a08110156103cb5760405162461bcd60e51b815260206004820152601f60248201527f4172656e615661756c743a2062656c6f77206d696e696d756d20656e7472790060448201526064015b60405180910390fd5b60008281526005602052604090205460ff16156103fa5760405162461bcd60e51b81526004016103c2906113fb565b60008281526004602052604090205460ff16156104295760405162461bcd60e51b81526004016103c290611442565b61045e6001600160a01b037f000000000000000000000000000000000000000000000000000000000000000016333084611110565b60008281526001602090815260408083203384529091528120805483929061048790849061149d565b9091555050600082815260026020526040812080548392906104aa90849061149d565b9091555050604051818152339083907f87d4c0b5e30d6808bc8a94ba1c4d839b29d664151551a31753387ee9ef48429b9060200160405180910390a36104fd60016000805160206115f883398151915255565b5050565b6105096110f4565b61053e6001600160a01b037f000000000000000000000000000000000000000000000000000000000000000016333084611110565b61055560016000805160206115f883398151915255565b50565b6000546001600160a01b031633146105825760405162461bcd60e51b81526004016103c2906114b0565b61058a6110f4565b60008581526005602052604090205460ff166105e85760405162461bcd60e51b815260206004820181905260248201527f4172656e615661756c743a2066756e6473206e6f742079657420726f7574656460448201526064016103c2565b60008581526004602052604090205460ff16156106475760405162461bcd60e51b815260206004820152601f60248201527f4172656e615661756c743a207061796f757420616c726561647920646f6e650060448201526064016103c2565b8281146106965760405162461bcd60e51b815260206004820152601b60248201527f4172656e615661756c743a206c656e677468206d69736d61746368000000000060448201526064016103c2565b826106de5760405162461bcd60e51b81526020600482015260186024820152774172656e615661756c743a20656d7074792061727261797360401b60448201526064016103c2565b6000858152600460208190526040808320805460ff19166001179055516370a0823160e01b815230918101919091526001600160a01b037f000000000000000000000000000000000000000000000000000000000000000016906370a0823190602401602060405180830381865afa15801561075e573d6000803e3d6000fd5b505050506040513d601f19601f8201168201806040525081019061078291906114e7565b905060005b8481101561090b5760008484838181106107a3576107a3611500565b905060200201351180156107cf5750818484838181106107c5576107c5611500565b9050602002013511155b156108f9576108508686838181106107e9576107e9611500565b90506020020160208101906107fe91906113d9565b85858481811061081057610810611500565b905060200201357f00000000000000000000000000000000000000000000000000000000000000006001600160a01b031661114c9092919063ffffffff16565b83838281811061086257610862611500565b90506020020135826108749190611516565b915085858281811061088857610888611500565b905060200201602081019061089d91906113d9565b6001600160a01b0316877fa7e9c984596fc7347afd9ffea77d87fdb9f18f6b1cad4980ccbb8f21d2ffa09f8686858181106108da576108da611500565b905060200201356040516108f091815260200190565b60405180910390a35b8061090381611529565b915050610787565b505061092460016000805160206115f883398151915255565b5050505050565b6109336110f4565b60008181526005602052604090205460ff166109915760405162461bcd60e51b815260206004820181905260248201527f4172656e615661756c743a2066756e6473206e6f7420726f757465642079657460448201526064016103c2565b60008181526004602052604090205460ff16156109f05760405162461bcd60e51b815260206004820152601f60248201527f4172656e615661756c743a207061796f757420616c726561647920646f6e650060448201526064016103c2565b600081815260036020526040902054610a0d906202a3009061149d565b421015610a5c5760405162461bcd60e51b815260206004820152601f60248201527f4172656e615661756c743a2074696d656f7574206e6f7420726561636865640060448201526064016103c2565b600081815260016020908152604080832033845290915290205480610abc5760405162461bcd60e51b8152602060048201526016602482015275105c995b9855985d5b1d0e881b9bc819195c1bdcda5d60521b60448201526064016103c2565b6000828152600260205260408082205490516370a0823160e01b81523060048201529091907f00000000000000000000000000000000000000000000000000000000000000006001600160a01b0316906370a0823190602401602060405180830381865afa158015610b32573d6000803e3d6000fd5b505050506040513d601f19601f82011682018060405250810190610b5691906114e7565b9050600082610b658584611542565b610b6f9190611559565b600086815260016020908152604080832033845290915281205590508015610bc557610bc56001600160a01b037f000000000000000000000000000000000000000000000000000000000000000016338361114c565b604051818152339086907fd3e69353709a7dcaab28b44353b592c552cd797c95ffb523f924c0a16b4a2c2b9060200160405180910390a35050505061055560016000805160206115f883398151915255565b610c1f6110f4565b60008181526005602052604090205460ff1615610c4e5760405162461bcd60e51b81526004016103c2906113fb565b60008181526004602052604090205460ff1615610c7d5760405162461bcd60e51b81526004016103c290611442565b620186a0610cb66001600160a01b037f000000000000000000000000000000000000000000000000000000000000000016333084611110565b600082815260016020908152604080832033845290915281208054839290610cdf90849061149d565b909155505060008281526002602052604081208054839290610d0290849061149d565b9091555050604051818152339083907f87d4c0b5e30d6808bc8a94ba1c4d839b29d664151551a31753387ee9ef48429b9060200160405180910390a35061055560016000805160206115f883398151915255565b6000546001600160a01b03163314610d805760405162461bcd60e51b81526004016103c2906114b0565b6001600160a01b038116610dd65760405162461bcd60e51b815260206004820152601860248201527f4172656e615661756c743a207a65726f2061646472657373000000000000000060448201526064016103c2565b600080546040516001600160a01b03808516939216917fd58299b712891143e76310d5e664c4203c940a67db37cf856bdaa3c5c76a802c91a3600080546001600160a01b0319166001600160a01b0392909216919091179055565b60008281526001602090815260408083206001600160a01b03851684529091529020545b92915050565b6000546001600160a01b03163314610e855760405162461bcd60e51b81526004016103c2906114b0565b610e8d6110f4565b60008581526005602052604090205460ff1615610eec5760405162461bcd60e51b815260206004820152601a60248201527f4172656e615661756c743a20616c726561647920726f7574656400000000000060448201526064016103c2565b828114610f3b5760405162461bcd60e51b815260206004820152601b60248201527f4172656e615661756c743a206c656e677468206d69736d61746368000000000060448201526064016103c2565b82610f835760405162461bcd60e51b81526020600482015260186024820152774172656e615661756c743a20656d7074792061727261797360401b60448201526064016103c2565b6000805b82811015610fc757838382818110610fa157610fa1611500565b9050602002013582610fb3919061149d565b915080610fbf81611529565b915050610f87565b506000868152600260205260409020548111156110265760405162461bcd60e51b815260206004820152601d60248201527f4172656e615661756c743a20696e73756666696369656e7420706f6f6c00000060448201526064016103c2565b6000868152600560209081526040808320805460ff19166001179055600390915281204290555b8481101561109d57600084848381811061106957611069611500565b90506020020135111561108b5761108b8686838181106107e9576107e9611500565b8061109581611529565b91505061104d565b50857f7a303d3a0496025ac9b54fc00e741fbb72cbfe9d616c0e9e5481eed3fc99f614868686866040516110d4949392919061157b565b60405180910390a25061092460016000805160206115f883398151915255565b6110fc611186565b60026000805160206115f883398151915255565b61111e8484848460016111b8565b61114657604051635274afe760e01b81526001600160a01b03851660048201526024016103c2565b50505050565b611159838383600161122a565b61118157604051635274afe760e01b81526001600160a01b03841660048201526024016103c2565b505050565b6000805160206115f8833981519152546002036111b657604051633ee5aeb560e01b815260040160405180910390fd5b565b6040516323b872dd60e01b60008181526001600160a01b038781166004528616602452604485905291602083606481808c5af19250600160005114831661121857838315161561120b573d6000823e3d81fd5b6000883b113d1516831692505b60405250600060605295945050505050565b60405163a9059cbb60e01b60008181526001600160a01b038616600452602485905291602083604481808b5af192506001600051148316611284578383151615611277573d6000823e3d81fd5b6000873b113d1516831692505b60405250949350505050565b6000602082840312156112a257600080fd5b5035919050565b600080604083850312156112bc57600080fd5b50508035926020909101359150565b80356001600160a01b03811681146112e257600080fd5b919050565b600080604083850312156112fa57600080fd5b8235915061130a602084016112cb565b90509250929050565b60008083601f84011261132557600080fd5b50813567ffffffffffffffff81111561133d57600080fd5b6020830191508360208260051b850101111561135857600080fd5b9250929050565b60008060008060006060868803121561137757600080fd5b85359450602086013567ffffffffffffffff8082111561139657600080fd5b6113a289838a01611313565b909650945060408801359150808211156113bb57600080fd5b506113c888828901611313565b969995985093965092949392505050565b6000602082840312156113eb57600080fd5b6113f4826112cb565b9392505050565b60208082526027908201527f4172656e615661756c743a20636f6d7065746974696f6e20616c7265616479206040820152661cdd185c9d195960ca1b606082015260800190565b60208082526025908201527f4172656e615661756c743a20636f6d7065746974696f6e20616c726561647920604082015264195b99195960da1b606082015260800190565b634e487b7160e01b600052601160045260246000fd5b80820180821115610e5557610e55611487565b60208082526018908201527f4172656e615661756c743a206e6f74206f70657261746f720000000000000000604082015260600190565b6000602082840312156114f957600080fd5b5051919050565b634e487b7160e01b600052603260045260246000fd5b81810381811115610e5557610e55611487565b60006001820161153b5761153b611487565b5060010190565b8082028115828204841417610e5557610e55611487565b60008261157657634e487b7160e01b600052601260045260246000fd5b500490565b6040808252810184905260008560608301825b878110156115bc576001600160a01b036115a7846112cb565b1682526020928301929091019060010161158e565b5083810360208501528481526001600160fb1b038511156115dc57600080fd5b8460051b91508186602083013701602001969550505050505056fe9b779b17422d0df92223018b32b4d1fa46e071723d6817e2486d003becc55f00a264697066735822122075e58cdb8bb296d4c1d8e2de2ae66f54e8ae31957faacb98545c33167f1e760164736f6c63430008140033",
  "linkReferences": {},
  "deployedLinkReferences": {}
}