{"contracts/ArenaVault.sol":{"ArenaVault":{"abi":[{"inputs":[{"internalType":"address","name":"_usdc","type":"address"},{"internalType":"address","name":"_operator","type":"address"}],"stateMutability":"nonpayable","type":"constructor"},{"inputs":[],"name":"ReentrancyGuardReentrantCall","type":"error"},{"inputs":[{"internalType":"address","name":"token","type":"address"}],"name":"SafeERC20FailedOperation","type":"error"},{"anonymous":false,"inputs":[{"indexed":true,"internalType":"bytes32","name":"arenaId","type":"bytes32"},{"indexed":true,"internalType":"address","name":"user","type":"address"},{"indexed":false,"internalType":"uint256","name":"amount","type":"uint256"}],"name":"Deposited","type":"event"},{"anonymous":false,"inputs":[{"indexed":true,"internalType":"bytes32","name":"arenaId","type":"bytes32"},{"indexed":true,"internalType":"address","name":"user","type":"address"},{"indexed":false,"internalType":"uint256","name":"amount","type":"uint256"}],"name":"EmergencyWithdraw","type":"event"},{"anonymous":false,"inputs":[{"indexed":true,"internalType":"bytes32","name":"arenaId","type":"bytes32"},{"indexed":false,"internalType":"address[]","name":"agentWallets","type":"address[]"},{"indexed":false,"internalType":"uint256[]","name":"amounts","type":"uint256[]"}],"name":"FundsRouted","type":"event"},{"anonymous":false,"inputs":[{"indexed":true,"internalType":"address","name":"oldOperator","type":"address"},{"indexed":true,"internalType":"address","name":"newOperator","type":"address"}],"name":"OperatorChanged","type":"event"},{"anonymous":false,"inputs":[{"indexed":true,"internalType":"bytes32","name":"arenaId","type":"bytes32"},{"indexed":true,"internalType":"address","name":"recipient","type":"address"},{"indexed":false,"internalType":"uint256","name":"amount","type":"uint256"}],"name":"PayoutDistributed","type":"event"},{"inputs":[],"name":"EMERGENCY_TIMEOUT","outputs":[{"internalType":"uint256","name":"","type":"uint256"}],"stateMutability":"view","type":"function"},{"inputs":[],"name":"MINIMUM_ENTRY","outputs":[{"internalType":"uint256","name":"","type":"uint256"}],"stateMutability":"view","type":"function"},{"inputs":[{"internalType":"bytes32","name":"","type":"bytes32"}],"name":"arenaStartTime","outputs":[{"internalType":"uint256","name":"","type":"uint256"}],"stateMutability":"view","type":"function"},{"inputs":[{"internalType":"bytes32","name":"arenaId","type":"bytes32"}],"name":"deposit","outputs":[],"stateMutability":"nonpayable","type":"function"},{"inputs":[{"internalType":"bytes32","name":"arenaId","type":"bytes32"},{"internalType":"uint256","name":"amount","type":"uint256"}],"name":"depositAmount","outputs":[],"stateMutability":"nonpayable","type":"function"},{"inputs":[{"internalType":"bytes32","name":"","type":"bytes32"},{"internalType":"address","name":"","type":"address"}],"name":"deposits","outputs":[{"internalType":"uint256","name":"","type":"uint256"}],"stateMutability":"view","type":"function"},{"inputs":[{"internalType":"bytes32","name":"arenaId","type":"bytes32"},{"internalType":"address[]","name":"recipients","type":"address[]"},{"internalType":"uint256[]","name":"amounts","type":"uint256[]"}],"name":"distributePayout","outputs":[],"stateMutability":"nonpayable","type":"function"},{"inputs":[{"internalType":"bytes32","name":"arenaId","type":"bytes32"}],"name":"emergencyWithdraw","outputs":[],"stateMutability":"nonpayable","type":"function"},{"inputs":[{"internalType":"bytes32","name":"","type":"bytes32"}],"name":"fundsRouted","outputs":[{"internalType":"bool","name":"","type":"bool"}],"stateMutability":"view","type":"function"},{"inputs":[{"internalType":"bytes32","name":"arenaId","type":"bytes32"},{"internalType":"address","name":"user","type":"address"}],"name":"getDeposit","outputs":[{"internalType":"uint256","name":"","type":"uint256"}],"stateMutability":"view","type":"function"},{"inputs":[{"internalType":"bytes32","name":"arenaId","type":"bytes32"}],"name":"getPooledFunds","outputs":[{"internalType":"uint256","name":"","type":"uint256"}],"stateMutability":"view","type":"function"},{"inputs":[{"internalType":"bytes32","name":"arenaId","type":"bytes32"}],"name":"isArenaStarted","outputs":[{"internalType":"bool","name":"","type":"bool"}],"stateMutability":"view","type":"function"},{"inputs":[{"internalType":"bytes32","name":"arenaId","type":"bytes32"}],"name":"isPayoutDone","outputs":[{"internalType":"bool","name":"","type":"bool"}],"stateMutability":"view","type":"function"},{"inputs":[],"name":"operator","outputs":[{"internalType":"address","name":"","type":"address"}],"stateMutability":"view","type":"function"},{"inputs":[{"internalType":"bytes32","name":"","type":"bytes32"}],"name":"payoutDistributed","outputs":[{"internalType":"bool","name":"","type":"bool"}],"stateMutability":"view","type":"function"},{"inputs":[{"internalType":"bytes32","name":"","type":"bytes32"}],"name":"pooledFunds","outputs":[{"internalType":"uint256","name":"","type":"uint256"}],"stateMutability":"view","type":"function"},{"inputs":[{"internalType":"uint256","name":"amount","type":"uint256"}],"name":"returnFunds","outputs":[],"stateMutability":"nonpayable","type":"function"},{"inputs":[{"internalType":"bytes32","name":"arenaId","type":"bytes32"},{"internalType":"address[]","name":"agentWallets","type":"address[]"},{"internalType":"uint256[]","name":"amounts","type":"uint256[]"}],"name":"routeFunds","outputs":[],"stateMutability":"nonpayable","type":"function"},{"inputs":[{"internalType":"address","name":"newOperator","type":"address"}],"name":"setOperator","outputs":[],"stateMutability":"nonpayable","type":"function"},{"inputs":[],"name":"usdc","outputs":[{"internalType":"address","name":"","type":"address"}],"stateMutability":"view","type":"function"}],"evm":{"bytecode":{"linkReferences":{},"object":"60a06040523480156200001157600080fd5b506040516200182438038062001824833981016040819052620000349162000152565b60017f9b779b17422d0df92223018b32b4d1fa46e071723d6817e2486d003becc55f00556001600160a01b038216620000b45760405162461bcd60e51b815260206004820152601560248201527f4172656e615661756c743a207a65726f2075736463000000000000000000000060448201526064015b60405180910390fd5b6001600160a01b0381166200010c5760405162461bcd60e51b815260206004820152601960248201527f4172656e615661756c743a207a65726f206f70657261746f72000000000000006044820152606401620000ab565b6001600160a01b03918216608052600080546001600160a01b031916919092161790556200018a565b80516001600160a01b03811681146200014d57600080fd5b919050565b600080604083850312156200016657600080fd5b620001718362000135565b9150620001816020840162000135565b90509250929050565b60805161164d620001d7600039600081816101bb0152818161043601528181610516015281816107170152818161081901528181610ae301528181610b9e0152610c8e015261164d6000f3fe608060405234801561001057600080fd5b506004361061012c5760003560e01c806377388e19116100ad578063b733f15511610071578063b733f155146102e2578063c3ca17d914610302578063d0f4089a14610322578063e7229a8514610335578063e9929c951461034857600080fd5b806377388e191461026c5780637f2640761461028f578063a3a7c1f814610299578063b214faa5146102bc578063b3ab15fb146102cf57600080fd5b806345755dd6116100f457806345755dd6146101f55780634f1c2c3114610208578063570ca735146102335780636de1bdfe1461024657806375870d651461025957600080fd5b80630ec9212f14610131578063118279f2146101695780631f5025711461017e57806339b15b54146101965780633e413bee146101b6575b600080fd5b61015461013f366004611290565b60009081526004602052604090205460ff1690565b60405190151581526020015b60405180910390f35b61017c6101773660046112a9565b61036b565b005b6101886207a12081565b604051908152602001610160565b6101886101a4366004611290565b60009081526002602052604090205490565b6101dd7f000000000000000000000000000000000000000000000000000000000000000081565b6040516001600160a01b039091168152602001610160565b61017c610203366004611290565b610501565b6101886102163660046112e7565b600160209081526000928352604080842090915290825290205481565b6000546101dd906001600160a01b031681565b61017c61025436600461135f565b610558565b61017c610267366004611290565b61092b565b61015461027a366004611290565b60046020526000908152604090205460ff1681565b6101886202a30081565b6101546102a7366004611290565b60009081526005602052604090205460ff1690565b61017c6102ca366004611290565b610c17565b61017c6102dd3660046113d9565b610d56565b6101886102f0366004611290565b60036020526000908152604090205481565b610188610310366004611290565b60026020526000908152604090205481565b6101886103303660046112e7565b610e31565b61017c61034336600461135f565b610e5b565b610154610356366004611290565b60056020526000908152604090205460ff1681565b6103736110f4565b6207a1208110156103cb5760405162461bcd60e51b815260206004820152601f60248201527f4172656e615661756c743a2062656c6f77206d696e696d756d20656e7472790060448201526064015b60405180910390fd5b60008281526005602052604090205460ff16156103fa5760405162461bcd60e51b81526004016103c2906113fb565b60008281526004602052604090205460ff16156104295760405162461bcd60e51b81526004016103c290611442565b61045e6001600160a01b037f000000000000000000000000000000000000000000000000000000000000000016333084611110565b60008281526001602090815260408083203384529091528120805483929061048790849061149d565b9091555050600082815260026020526040812080548392906104aa90849061149d565b9091555050604051818152339083907f87d4c0b5e30d6808bc8a94ba1c4d839b29d664151551a31753387ee9ef48429b9060200160405180910390a36104fd60016000805160206115f883398151915255565b5050565b6105096110f4565b61053e6001600160a01b037f000000000000000000000000000000000000000000000000000000000000000016333084611110565b61055560016000805160206115f883398151915255565b50565b6000546001600160a01b031633146105825760405162461bcd60e51b81526004016103c2906114b0565b61058a6110f4565b60008581526005602052604090205460ff166105e85760405162461bcd60e51b815260206004820181905260248201527f4172656e615661756c743a2066756e6473206e6f742079657420726f7574656460448201526064016103c2565b60008581526004602052604090205460ff16156106475760405162461bcd60e51b815260206004820152601f60248201527f4172656e615661756c743a207061796f757420616c726561647920646f6e650060448201526064016103c2565b8281146106965760405162461bcd60e51b815260206004820152601b60248201527f4172656e615661756c743a206c656e677468206d69736d61746368000000000060448201526064016103c2565b826106de5760405162461bcd60e51b81526020600482015260186024820152774172656e615661756c743a20656d7074792061727261797360401b60448201526064016103c2565b6000858152600460208190526040808320805460ff19166001179055516370a0823160e01b815230918101919091526001600160a01b037f000000000000000000000000000000000000000000000000000000000000000016906370a0823190602401602060405180830381865afa15801561075e573d6000803e3d6000fd5b505050506040513d601f19601f8201168201806040525081019061078291906114e7565b905060005b8481101561090b5760008484838181106107a3576107a3611500565b905060200201351180156107cf5750818484838181106107c5576107c5611500565b9050602002013511155b156108f9576108508686838181106107e9576107e9611500565b90506020020160208101906107fe91906113d9565b85858481811061081057610810611500565b905060200201357f00000000000000000000000000000000000000000000000000000000000000006001600160a01b031661114c9092919063ffffffff16565b83838281811061086257610862611500565b90506020020135826108749190611516565b915085858281811061088857610888611500565b905060200201602081019061089d91906113d9565b6001600160a01b0316877fa7e9c984596fc7347afd9ffea77d87fdb9f18f6b1cad4980ccbb8f21d2ffa09f8686858181106108da576108da611500565b905060200201356040516108f091815260200190565b60405180910390a35b8061090381611529565b915050610787565b505061092460016000805160206115f883398151915255565b5050505050565b6109336110f4565b60008181526005602052604090205460ff166109915760405162461bcd60e51b815260206004820181905260248201527f4172656e615661756c743a2066756e6473206e6f7420726f757465642079657460448201526064016103c2565b60008181526004602052604090205460ff16156109f05760405162461bcd60e51b815260206004820152601f60248201527f4172656e615661756c743a207061796f757420616c726561647920646f6e650060448201526064016103c2565b600081815260036020526040902054610a0d906202a3009061149d565b421015610a5c5760405162461bcd60e51b815260206004820152601f60248201527f4172656e615661756c743a2074696d656f7574206e6f7420726561636865640060448201526064016103c2565b600081815260016020908152604080832033845290915290205480610abc5760405162461bcd60e51b8152602060048201526016602482015275105c995b9855985d5b1d0e881b9bc819195c1bdcda5d60521b60448201526064016103c2565b6000828152600260205260408082205490516370a0823160e01b81523060048201529091907f00000000000000000000000000000000000000000000000000000000000000006001600160a01b0316906370a0823190602401602060405180830381865afa158015610b32573d6000803e3d6000fd5b505050506040513d601f19601f82011682018060405250810190610b5691906114e7565b9050600082610b658584611542565b610b6f9190611559565b600086815260016020908152604080832033845290915281205590508015610bc557610bc56001600160a01b037f000000000000000000000000000000000000000000000000000000000000000016338361114c565b604051818152339086907fd3e69353709a7dcaab28b44353b592c552cd797c95ffb523f924c0a16b4a2c2b9060200160405180910390a35050505061055560016000805160206115f883398151915255565b610c1f6110f4565b60008181526005602052604090205460ff1615610c4e5760405162461bcd60e51b81526004016103c2906113fb565b60008181526004602052604090205460ff1615610c7d5760405162461bcd60e51b81526004016103c290611442565b6207a120610cb66001600160a01b037f000000000000000000000000000000000000000000000000000000000000000016333084611110565b600082815260016020908152604080832033845290915281208054839290610cdf90849061149d565b909155505060008281526002602052604081208054839290610d0290849061149d565b9091555050604051818152339083907f87d4c0b5e30d6808bc8a94ba1c4d839b29d664151551a31753387ee9ef48429b9060200160405180910390a35061055560016000805160206115f883398151915255565b6000546001600160a01b03163314610d805760405162461bcd60e51b81526004016103c2906114b0565b6001600160a01b038116610dd65760405162461bcd60e51b815260206004820152601860248201527f4172656e615661756c743a207a65726f2061646472657373000000000000000060448201526064016103c2565b600080546040516001600160a01b03808516939216917fd58299b712891143e76310d5e664c4203c940a67db37cf856bdaa3c5c76a802c91a3600080546001600160a01b0319166001600160a01b0392909216919091179055565b60008281526001602090815260408083206001600160a01b03851684529091529020545b92915050565b6000546001600160a01b03163314610e855760405162461bcd60e51b81526004016103c2906114b0565b610e8d6110f4565b60008581526005602052604090205460ff1615610eec5760405162461bcd60e51b815260206004820152601a60248201527f4172656e615661756c743a20616c726561647920726f7574656400000000000060448201526064016103c2565b828114610f3b5760405162461bcd60e51b815260206004820152601b60248201527f4172656e615661756c743a206c656e677468206d69736d61746368000000000060448201526064016103c2565b82610f835760405162461bcd60e51b81526020600482015260186024820152774172656e615661756c743a20656d7074792061727261797360401b60448201526064016103c2565b6000805b82811015610fc757838382818110610fa157610fa1611500565b9050602002013582610fb3919061149d565b915080610fbf81611529565b915050610f87565b506000868152600260205260409020548111156110265760405162461bcd60e51b815260206004820152601d60248201527f4172656e615661756c743a20696e73756666696369656e7420706f6f6c00000060448201526064016103c2565b6000868152600560209081526040808320805460ff19166001179055600390915281204290555b8481101561109d57600084848381811061106957611069611500565b90506020020135111561108b5761108b8686838181106107e9576107e9611500565b8061109581611529565b91505061104d565b50857f7a303d3a0496025ac9b54fc00e741fbb72cbfe9d616c0e9e5481eed3fc99f614868686866040516110d4949392919061157b565b60405180910390a25061092460016000805160206115f883398151915255565b6110fc611186565b60026000805160206115f883398151915255565b61111e8484848460016111b8565b61114657604051635274afe760e01b81526001600160a01b03851660048201526024016103c2565b50505050565b611159838383600161122a565b61118157604051635274afe760e01b81526001600160a01b03841660048201526024016103c2565b505050565b6000805160206115f8833981519152546002036111b657604051633ee5aeb560e01b815260040160405180910390fd5b565b6040516323b872dd60e01b60008181526001600160a01b038781166004528616602452604485905291602083606481808c5af19250600160005114831661121857838315161561120b573d6000823e3d81fd5b6000883b113d1516831692505b60405250600060605295945050505050565b60405163a9059cbb60e01b60008181526001600160a01b038616600452602485905291602083604481808b5af192506001600051148316611284578383151615611277573d6000823e3d81fd5b6000873b113d1516831692505b60405250949350505050565b6000602082840312156112a257600080fd5b5035919050565b600080604083850312156112bc57600080fd5b50508035926020909101359150565b80356001600160a01b03811681146112e257600080fd5b919050565b600080604083850312156112fa57600080fd5b8235915061130a602084016112cb565b90509250929050565b60008083601f84011261132557600080fd5b50813567ffffffffffffffff81111561133d57600080fd5b6020830191508360208260051b850101111561135857600080fd5b9250929050565b60008060008060006060868803121561137757600080fd5b85359450602086013567ffffffffffffffff8082111561139657600080fd5b6113a289838a01611313565b909650945060408801359150808211156113bb57600080fd5b506113c888828901611313565b969995985093965092949392505050565b6000602082840312156113eb57600080fd5b6113f4826112cb565b9392505050565b60208082526027908201527f4172656e615661756c743a20636f6d7065746974696f6e20616c7265616479206040820152661cdd185c9d195960ca1b606082015260800190565b60208082526025908201527f4172656e615661756c743a20636f6d7065746974696f6e20616c726561647920604082015264195b99195960da1b606082015260800190565b634e487b7160e01b600052601160045260246000fd5b80820180821115610e5557610e55611487565b60208082526018908201527f4172656e615661756c743a206e6f74206f70657261746f720000000000000000604082015260600190565b6000602082840312156114f957600080fd5b5051919050565b634e487b7160e01b600052603260045260246000fd5b81810381811115610e5557610e55611487565b60006001820161153b5761153b611487565b5060010190565b8082028115828204841417610e5557610e55611487565b60008261157657634e487b7160e01b600052601260045260246000fd5b500490565b6040808252810184905260008560608301825b878110156115bc576001600160a01b036115a7846112cb565b1682526020928301929091019060010161158e565b5083810360208501528481526001600160fb1b038511156115dc57600080fd5b8460051b91508186602083013701602001969550505050505056fe9b779b17422d0df92223018b32b4d1fa46e071723d6817e2486d003becc55f00a26469706673582212202951e291247320c2753ab4dcd2fb23b0353d0418fc1e6ebb9cc7365fe50adea564736f6c63430008140033","opcodes":"PUSH1 0xA0 PUSH1 0x40 MSTORE CALLVALUE DUP1 ISZERO PUSH3 0x11 JUMPI PUSH1 0x0 DUP1 REVERT JUMPDEST POP PUSH1 0x40 MLOAD PUSH3 0x1824 CODESIZE SUB DUP1 PUSH3 0x1824 DUP4 CODECOPY DUP2 ADD PUSH1 0x40 DUP2 SWAP1 MSTORE PUSH3 0x34 SWAP2 PUSH3 0x152 JUMP JUMPDEST PUSH1 0x1 PUSH32 0x9B779B17422D0DF92223018B32B4D1FA46E071723D6817E2486D003BECC55F00 SSTORE PUSH1 0x1 PUSH1 0x1 PUSH1 0xA0 SHL SUB DUP3 AND PUSH3 0xB4 JUMPI PUSH1 0x40 MLOAD PUSH3 0x461BCD PUSH1 0xE5 SHL DUP2 MSTORE PUSH1 0x20 PUSH1 0x4 DUP3 ADD MSTORE PUSH1 0x15 PUSH1 0x24 DUP3 ADD MSTORE PUSH32 0x4172656E615661756C743A207A65726F20757364630000000000000000000000 PUSH1 0x44 DUP3 ADD MSTORE PUSH1 0x64 ADD JUMPDEST PUSH1 0x40 MLOAD DUP1 SWAP2 SUB SWAP1 REVERT JUMPDEST PUSH1 0x1 PUSH1 0x1 PUSH1 0xA0 SHL SUB DUP2 AND PUSH3 0x10C JUMPI PUSH1 0x40 MLOAD PUSH3 0x461BCD PUSH1 0xE5 SHL DUP2 MSTORE PUSH1 0x20 PUSH1 0x4 DUP3 ADD MSTORE PUSH1 0x19 PUSH1 0x24 DUP3 ADD MSTORE PUSH32 0x4172656E615661756C743A207A65726F206F70657261746F7200000000000000 PUSH1 0x44 DUP3 ADD MSTORE PUSH1 0x64 ADD PUSH3 0xAB JUMP JUMPDEST PUSH1 0x1 PUSH1 0x1 PUSH1 0xA0 SHL SUB SWAP2 DUP3 AND PUSH1 0x80 MSTORE PUSH1 0x0 DUP1 SLOAD PUSH1 0x1 PUSH1 0x1 PUSH1 0xA0 SHL SUB NOT AND SWAP2 SWAP1 SWAP3 AND OR SWAP1 SSTORE PUSH3 0x18A JUMP JUMPDEST DUP1 MLOAD PUSH1 0x1 PUSH1 0x1 PUSH1 0xA0 SHL SUB DUP2 AND DUP2 EQ PUSH3 0x14D JUMPI PUSH1 0x0 DUP1 REVERT JUMPDEST SWAP2 SWAP1 POP JUMP JUMPDEST PUSH1 0x0 DUP1 PUSH1 0x40 DUP4 DUP6 SUB SLT ISZERO PUSH3 0x166 JUMPI PUSH1 0x0 DUP1 REVERT JUMPDEST PUSH3 0x171 DUP4 PUSH3 0x135 JUMP JUMPDEST SWAP2 POP PUSH3 0x181 PUSH1 0x20 DUP5 ADD PUSH3 0x135 JUMP JUMPDEST SWAP1 POP SWAP3 POP SWAP3 SWAP1 POP JUMP JUMPDEST PUSH1 0x80 MLOAD PUSH2 0x164D PUSH3 0x1D7 PUSH1 0x0 CODECOPY PUSH1 0x0 DUP2 DUP2 PUSH2 0x1BB ADD MSTORE DUP2 DUP2 PUSH2 0x436 ADD MSTORE DUP2 DUP2 PUSH2 0x516 ADD MSTORE DUP2 DUP2 PUSH2 0x717 ADD MSTORE DUP2 DUP2 PUSH2 0x819 ADD MSTORE DUP2 DUP2 PUSH2 0xAE3 ADD MSTORE DUP2 DUP2 PUSH2 0xB9E ADD MSTORE PUSH2 0xC8E ADD MSTORE PUSH2 0x164D PUSH1 0x0 RETURN INVALID PUSH1 0x80 PUSH1 0x40 MSTORE CALLVALUE DUP1 ISZERO PUSH2 0x10 JUMPI PUSH1 0x0 DUP1 REVERT JUMPDEST POP PUSH1 0x4 CALLDATASIZE LT PUSH2 0x12C JUMPI PUSH1 0x0 CALLDATALOAD PUSH1 0xE0 SHR DUP1 PUSH4 0x77388E19 GT PUSH2 0xAD JUMPI DUP1 PUSH4 0xB733F155 GT PUSH2 0x71 JUMPI DUP1 PUSH4 0xB733F155 EQ PUSH2 0x2E2 JUMPI DUP1 PUSH4 0xC3CA17D9 EQ PUSH2 0x302 JUMPI DUP1 PUSH4 0xD0F4089A EQ PUSH2 0x322 JUMPI DUP1 PUSH4 0xE7229A85 EQ PUSH2 0x335 JUMPI DUP1 PUSH4 0xE9929C95 EQ PUSH2 0x348 JUMPI PUSH1 0x0 DUP1 REVERT JUMPDEST DUP1 PUSH4 0x77388E19 EQ PUSH2 0x26C JUMPI DUP1 PUSH4 0x7F264076 EQ PUSH2 0x28F JUMPI DUP1 PUSH4 0xA3A7C1F8 EQ PUSH2 0x299 JUMPI DUP1 PUSH4 0xB214FAA5 EQ PUSH2 0x2BC JUMPI DUP1 PUSH4 0xB3AB15FB EQ PUSH2 0x2CF JUMPI PUSH1 0x0 DUP1 REVERT JUMPDEST DUP1 PUSH4 0x45755DD6 GT PUSH2 0xF4 JUMPI DUP1 PUSH4 0x45755DD6 EQ PUSH2 0x1F5 JUMPI DUP1 PUSH4 0x4F1C2C31 EQ PUSH2 0x208 JUMPI DUP1 PUSH4 0x570CA735 EQ PUSH2 0x233 JUMPI DUP1 PUSH4 0x6DE1BDFE EQ PUSH2 0x246 JUMPI DUP1 PUSH4 0x75870D65 EQ PUSH2 0x259 JUMPI PUSH1 0x0 DUP1 REVERT JUMPDEST DUP1 PUSH4 0xEC9212F EQ PUSH2 0x131 JUMPI DUP1 PUSH4 0x118279F2 EQ PUSH2 0x169 JUMPI DUP1 PUSH4 0x1F502571 EQ PUSH2 0x17E JUMPI DUP1 PUSH4 0x39B15B54 EQ PUSH2 0x196 JUMPI DUP1 PUSH4 0x3E413BEE EQ PUSH2 0x1B6 JUMPI JUMPDEST PUSH1 0x0 DUP1 REVERT JUMPDEST PUSH2 0x154 PUSH2 0x13F CALLDATASIZE PUSH1 0x4 PUSH2 0x1290 JUMP JUMPDEST PUSH1 0x0 SWAP1 DUP2 MSTORE PUSH1 0x4 PUSH1 0x20 MSTORE PUSH1 0x40 SWAP1 KECCAK256 SLOAD PUSH1 0xFF AND SWAP1 JUMP JUMPDEST PUSH1 0x40 MLOAD SWAP1 ISZERO ISZERO DUP2 MSTORE PUSH1 0x20 ADD JUMPDEST PUSH1 0x40 MLOAD DUP1 SWAP2 SUB SWAP1 RETURN JUMPDEST PUSH2 0x17C PUSH2 0x177 CALLDATASIZE PUSH1 0x4 PUSH2 0x12A9 JUMP JUMPDEST PUSH2 0x36B JUMP JUMPDEST STOP JUMPDEST PUSH2 0x188 PUSH3 0x7A120 DUP2 JUMP JUMPDEST PUSH1 0x40 MLOAD SWAP1 DUP2 MSTORE PUSH1 0x20 ADD PUSH2 0x160 JUMP JUMPDEST PUSH2 0x188 PUSH2 0x1A4 CALLDATASIZE PUSH1 0x4 PUSH2 0x1290 JUMP JUMPDEST PUSH1 0x0 SWAP1 DUP2 MSTORE PUSH1 0x2 PUSH1 0x20 MSTORE PUSH1 0x40 SWAP1 KECCAK256 SLOAD SWAP1 JUMP JUMPDEST PUSH2 0x1DD PUSH32 0x0 DUP2 JUMP JUMPDEST PUSH1 0x40 MLOAD PUSH1 0x1 PUSH1 0x1 PUSH1 0xA0 SHL SUB SWAP1 SWAP2 AND DUP2 MSTORE PUSH1 0x20 ADD PUSH2 0x160 JUMP JUMPDEST PUSH2 0x17C PUSH2 0x203 CALLDATASIZE PUSH1 0x4 PUSH2 0x1290 JUMP JUMPDEST PUSH2 0x501 JUMP JUMPDEST PUSH2 0x188 PUSH2 0x216 CALLDATASIZE PUSH1 0x4 PUSH2 0x12E7 JUMP JUMPDEST PUSH1 0x1 PUSH1 0x20 SWAP1 DUP2 MSTORE PUSH1 0x0 SWAP3 DUP4 MSTORE PUSH1 0x40 DUP1 DUP5 KECCAK256 SWAP1 SWAP2 MSTORE SWAP1 DUP3 MSTORE SWAP1 KECCAK256 SLOAD DUP2 JUMP JUMPDEST PUSH1 0x0 SLOAD PUSH2 0x1DD SWAP1 PUSH1 0x1 PUSH1 0x1 PUSH1 0xA0 SHL SUB AND DUP2 JUMP JUMPDEST PUSH2 0x17C PUSH2 0x254 CALLDATASIZE PUSH1 0x4 PUSH2 0x135F JUMP JUMPDEST PUSH2 0x558 JUMP JUMPDEST PUSH2 0x17C PUSH2 0x267 CALLDATASIZE PUSH1 0x4 PUSH2 0x1290 JUMP JUMPDEST PUSH2 0x92B JUMP JUMPDEST PUSH2 0x154 PUSH2 0x27A CALLDATASIZE PUSH1 0x4 PUSH2 0x1290 JUMP JUMPDEST PUSH1 0x4 PUSH1 0x20 MSTORE PUSH1 0x0 SWAP1 DUP2 MSTORE PUSH1 0x40 SWAP1 KECCAK256 SLOAD PUSH1 0xFF AND DUP2 JUMP JUMPDEST PUSH2 0x188 PUSH3 0x2A300 DUP2 JUMP JUMPDEST PUSH2 0x154 PUSH2 0x2A7 CALLDATASIZE PUSH1 0x4 PUSH2 0x1290 JUMP JUMPDEST PUSH1 0x0 SWAP1 DUP2 MSTORE PUSH1 0x5 PUSH1 0x20 MSTORE PUSH1 0x40 SWAP1 KECCAK256 SLOAD PUSH1 0xFF AND SWAP1 JUMP JUMPDEST PUSH2 0x17C PUSH2 0x2CA CALLDATASIZE PUSH1 0x4 PUSH2 0x1290 JUMP JUMPDEST PUSH2 0xC17 JUMP JUMPDEST PUSH2 0x17C PUSH2 0x2DD CALLDATASIZE PUSH1 0x4 PUSH2 0x13D9 JUMP JUMPDEST PUSH2 0xD56 JUMP JUMPDEST PUSH2 0x188 PUSH2 0x2F0 CALLDATASIZE PUSH1 0x4 PUSH2 0x1290 JUMP JUMPDEST PUSH1 0x3 PUSH1 0x20 MSTORE PUSH1 0x0 SWAP1 DUP2 MSTORE PUSH1 0x40 SWAP1 KECCAK256 SLOAD DUP2 JUMP JUMPDEST PUSH2 0x188 PUSH2 0x310 CALLDATASIZE PUSH1 0x4 PUSH2 0x1290 JUMP JUMPDEST PUSH1 0x2 PUSH1 0x20 MSTORE PUSH1 0x0 SWAP1 DUP2 MSTORE PUSH1 0x40 SWAP1 KECCAK256 SLOAD DUP2 JUMP JUMPDEST PUSH2 0x188 PUSH2 0x330 CALLDATASIZE PUSH1 0x4 PUSH2 0x12E7 JUMP JUMPDEST PUSH2 0xE31 JUMP JUMPDEST PUSH2 0x17C PUSH2 0x343 CALLDATASIZE PUSH1 0x4 PUSH2 0x135F JUMP JUMPDEST PUSH2 0xE5B JUMP JUMPDEST PUSH2 0x154 PUSH2 0x356 CALLDATASIZE PUSH1 0x4 PUSH2 0x1290 JUMP JUMPDEST PUSH1 0x5 PUSH1 0x20 MSTORE PUSH1 0x0 SWAP1 DUP2 MSTORE PUSH1 0x40 SWAP1 KECCAK256 SLOAD PUSH1 0xFF AND DUP2 JUMP JUMPDEST PUSH2 0x373 PUSH2 0x10F4 JUMP JUMPDEST PUSH3 0x7A120 DUP2 LT ISZERO PUSH2 0x3CB JUMPI PUSH1 0x40 MLOAD PUSH3 0x461BCD PUSH1 0xE5 SHL DUP2 MSTORE PUSH1 0x20 PUSH1 0x4 DUP3 ADD MSTORE PUSH1 0x1F PUSH1 0x24 DUP3 ADD MSTORE PUSH32 0x4172656E615661756C743A2062656C6F77206D696E696D756D20656E74727900 PUSH1 0x44 DUP3 ADD MSTORE PUSH1 0x64 ADD JUMPDEST PUSH1 0x40 MLOAD DUP1 SWAP2 SUB SWAP1 REVERT JUMPDEST PUSH1 0x0 DUP3 DUP2 MSTORE PUSH1 0x5 PUSH1 0x20 MSTORE PUSH1 0x40 SWAP1 KECCAK256 SLOAD PUSH1 0xFF AND ISZERO PUSH2 0x3FA JUMPI PUSH1 0x40 MLOAD PUSH3 0x461BCD PUSH1 0xE5 SHL DUP2 MSTORE PUSH1 0x4 ADD PUSH2 0x3C2 SWAP1 PUSH2 0x13FB JUMP JUMPDEST PUSH1 0x0 DUP3 DUP2 MSTORE PUSH1 0x4 PUSH1 0x20 MSTORE PUSH1 0x40 SWAP1 KECCAK256 SLOAD PUSH1 0xFF AND ISZERO PUSH2 0x429 JUMPI PUSH1 0x40 MLOAD PUSH3 0x461BCD PUSH1 0xE5 SHL DUP2 MSTORE PUSH1 0x4 ADD PUSH2 0x3C2 SWAP1 PUSH2 0x1442 JUMP JUMPDEST PUSH2 0x45E PUSH1 0x1 PUSH1 0x1 PUSH1 0xA0 SHL SUB PUSH32 0x0 AND CALLER ADDRESS DUP5 PUSH2 0x1110 JUMP JUMPDEST PUSH1 0x0 DUP3 DUP2 MSTORE PUSH1 0x1 PUSH1 0x20 SWAP1 DUP2 MSTORE PUSH1 0x40 DUP1 DUP4 KECCAK256 CALLER DUP5 MSTORE SWAP1 SWAP2 MSTORE DUP2 KECCAK256 DUP1 SLOAD DUP4 SWAP3 SWAP1 PUSH2 0x487 SWAP1 DUP5 SWAP1 PUSH2 0x149D JUMP JUMPDEST SWAP1 SWAP2 SSTORE POP POP PUSH1 0x0 DUP3 DUP2 MSTORE PUSH1 0x2 PUSH1 0x20 MSTORE PUSH1 0x40 DUP2 KECCAK256 DUP1 SLOAD DUP4 SWAP3 SWAP1 PUSH2 0x4AA SWAP1 DUP5 SWAP1 PUSH2 0x149D JUMP JUMPDEST SWAP1 SWAP2 SSTORE POP POP PUSH1 0x40 MLOAD DUP2 DUP2 MSTORE CALLER SWAP1 DUP4 SWAP1 PUSH32 0x87D4C0B5E30D6808BC8A94BA1C4D839B29D664151551A31753387EE9EF48429B SWAP1 PUSH1 0x20 ADD PUSH1 0x40 MLOAD DUP1 SWAP2 SUB SWAP1 LOG3 PUSH2 0x4FD PUSH1 0x1 PUSH1 0x0 DUP1 MLOAD PUSH1 0x20 PUSH2 0x15F8 DUP4 CODECOPY DUP2 MLOAD SWAP2 MSTORE SSTORE JUMP JUMPDEST POP POP JUMP JUMPDEST PUSH2 0x509 PUSH2 0x10F4 JUMP JUMPDEST PUSH2 0x53E PUSH1 0x1 PUSH1 0x1 PUSH1 0xA0 SHL SUB PUSH32 0x0 AND CALLER ADDRESS DUP5 PUSH2 0x1110 JUMP JUMPDEST PUSH2 0x555 PUSH1 0x1 PUSH1 0x0 DUP1 MLOAD PUSH1 0x20 PUSH2 0x15F8 DUP4 CODECOPY DUP2 MLOAD SWAP2 MSTORE SSTORE JUMP JUMPDEST POP JUMP JUMPDEST PUSH1 0x0 SLOAD PUSH1 0x1 PUSH1 0x1 PUSH1 0xA0 SHL SUB AND CALLER EQ PUSH2 0x582 JUMPI PUSH1 0x40 MLOAD PUSH3 0x461BCD PUSH1 0xE5 SHL DUP2 MSTORE PUSH1 0x4 ADD PUSH2 0x3C2 SWAP1 PUSH2 0x14B0 JUMP JUMPDEST PUSH2 0x58A PUSH2 0x10F4 JUMP JUMPDEST PUSH1 0x0 DUP6 DUP2 MSTORE PUSH1 0x5 PUSH1 0x20 MSTORE PUSH1 0x40 SWAP1 KECCAK256 SLOAD PUSH1 0xFF AND PUSH2 0x5E8 JUMPI PUSH1 0x40 MLOAD PUSH3 0x461BCD PUSH1 0xE5 SHL DUP2 MSTORE PUSH1 0x20 PUSH1 0x4 DUP3 ADD DUP2 SWAP1 MSTORE PUSH1 0x24 DUP3 ADD MSTORE PUSH32 0x4172656E615661756C743A2066756E6473206E6F742079657420726F75746564 PUSH1 0x44 DUP3 ADD MSTORE PUSH1 0x64 ADD PUSH2 0x3C2 JUMP JUMPDEST PUSH1 0x0 DUP6 DUP2 MSTORE PUSH1 0x4 PUSH1 0x20 MSTORE PUSH1 0x40 SWAP1 KECCAK256 SLOAD PUSH1 0xFF AND ISZERO PUSH2 0x647 JUMPI PUSH1 0x40 MLOAD PUSH3 0x461BCD PUSH1 0xE5 SHL DUP2 MSTORE PUSH1 0x20 PUSH1 0x4 DUP3 ADD MSTORE PUSH1 0x1F PUSH1 0x24 DUP3 ADD MSTORE PUSH32 0x4172656E615661756C743A207061796F757420616C726561647920646F6E6500 PUSH1 0x44 DUP3 ADD MSTORE PUSH1 0x64 ADD PUSH2 0x3C2 JUMP JUMPDEST DUP3 DUP2 EQ PUSH2 0x696 JUMPI PUSH1 0x40 MLOAD PUSH3 0x461BCD PUSH1 0xE5 SHL DUP2 MSTORE PUSH1 0x20 PUSH1 0x4 DUP3 ADD MSTORE PUSH1 0x1B PUSH1 0x24 DUP3 ADD MSTORE PUSH32 0x4172656E615661756C743A206C656E677468206D69736D617463680000000000 PUSH1 0x44 DUP3 ADD MSTORE PUSH1 0x64 ADD PUSH2 0x3C2 JUMP JUMPDEST DUP3 PUSH2 0x6DE JUMPI PUSH1 0x40 MLOAD PUSH3 0x461BCD PUSH1 0xE5 SHL DUP2 MSTORE PUSH1 0x20 PUSH1 0x4 DUP3 ADD MSTORE PUSH1 0x18 PUSH1 0x24 DUP3 ADD MSTORE PUSH24 0x4172656E615661756C743A20656D70747920617272617973 PUSH1 0x40 SHL PUSH1 0x44 DUP3 ADD MSTORE PUSH1 0x64 ADD PUSH2 0x3C2 JUMP JUMPDEST PUSH1 0x0 DUP6 DUP2 MSTORE PUSH1 0x4 PUSH1 0x20 DUP2 SWAP1 MSTORE PUSH1 0x40 DUP1 DUP4 KECCAK256 DUP1 SLOAD PUSH1 0xFF NOT AND PUSH1 0x1 OR SWAP1 SSTORE MLOAD PUSH4 0x70A08231 PUSH1 0xE0 SHL DUP2 MSTORE ADDRESS SWAP2 DUP2 ADD SWAP2 SWAP1 SWAP2 MSTORE PUSH1 0x1 PUSH1 0x1 PUSH1 0xA0 SHL SUB PUSH32 0x0 AND SWAP1 PUSH4 0x70A08231 SWAP1 PUSH1 0x24 ADD PUSH1 0x20 PUSH1 0x40 MLOAD DUP1 DUP4 SUB DUP2 DUP7 GAS STATICCALL ISZERO DUP1 ISZERO PUSH2 0x75E JUMPI RETURNDATASIZE PUSH1 0x0 DUP1 RETURNDATACOPY RETURNDATASIZE PUSH1 0x0 REVERT JUMPDEST POP POP POP POP PUSH1 0x40 MLOAD RETURNDATASIZE PUSH1 0x1F NOT PUSH1 0x1F DUP3 ADD AND DUP3 ADD DUP1 PUSH1 0x40 MSTORE POP DUP2 ADD SWAP1 PUSH2 0x782 SWAP2 SWAP1 PUSH2 0x14E7 JUMP JUMPDEST SWAP1 POP PUSH1 0x0 JUMPDEST DUP5 DUP2 LT ISZERO PUSH2 0x90B JUMPI PUSH1 0x0 DUP5 DUP5 DUP4 DUP2 DUP2 LT PUSH2 0x7A3 JUMPI PUSH2 0x7A3 PUSH2 0x1500 JUMP JUMPDEST SWAP1 POP PUSH1 0x20 MUL ADD CALLDATALOAD GT DUP1 ISZERO PUSH2 0x7CF JUMPI POP DUP2 DUP5 DUP5 DUP4 DUP2 DUP2 LT PUSH2 0x7C5 JUMPI PUSH2 0x7C5 PUSH2 0x1500 JUMP JUMPDEST SWAP1 POP PUSH1 0x20 MUL ADD CALLDATALOAD GT ISZERO JUMPDEST ISZERO PUSH2 0x8F9 JUMPI PUSH2 0x850 DUP7 DUP7 DUP4 DUP2 DUP2 LT PUSH2 0x7E9 JUMPI PUSH2 0x7E9 PUSH2 0x1500 JUMP JUMPDEST SWAP1 POP PUSH1 0x20 MUL ADD PUSH1 0x20 DUP2 ADD SWAP1 PUSH2 0x7FE SWAP2 SWAP1 PUSH2 0x13D9 JUMP JUMPDEST DUP6 DUP6 DUP5 DUP2 DUP2 LT PUSH2 0x810 JUMPI PUSH2 0x810 PUSH2 0x1500 JUMP JUMPDEST SWAP1 POP PUSH1 0x20 MUL ADD CALLDATALOAD PUSH32 0x0 PUSH1 0x1 PUSH1 0x1 PUSH1 0xA0 SHL SUB AND PUSH2 0x114C SWAP1 SWAP3 SWAP2 SWAP1 PUSH4 0xFFFFFFFF AND JUMP JUMPDEST DUP4 DUP4 DUP3 DUP2 DUP2 LT PUSH2 0x862 JUMPI PUSH2 0x862 PUSH2 0x1500 JUMP JUMPDEST SWAP1 POP PUSH1 0x20 MUL ADD CALLDATALOAD DUP3 PUSH2 0x874 SWAP2 SWAP1 PUSH2 0x1516 JUMP JUMPDEST SWAP2 POP DUP6 DUP6 DUP3 DUP2 DUP2 LT PUSH2 0x888 JUMPI PUSH2 0x888 PUSH2 0x1500 JUMP JUMPDEST SWAP1 POP PUSH1 0x20 MUL ADD PUSH1 0x20 DUP2 ADD SWAP1 PUSH2 0x89D SWAP2 SWAP1 PUSH2 0x13D9 JUMP JUMPDEST PUSH1 0x1 PUSH1 0x1 PUSH1 0xA0 SHL SUB AND DUP8 PUSH32 0xA7E9C984596FC7347AFD9FFEA77D87FDB9F18F6B1CAD4980CCBB8F21D2FFA09F DUP7 DUP7 DUP6 DUP2 DUP2 LT PUSH2 0x8DA JUMPI PUSH2 0x8DA PUSH2 0x1500 JUMP JUMPDEST SWAP1 POP PUSH1 0x20 MUL ADD CALLDATALOAD PUSH1 0x40 MLOAD PUSH2 0x8F0 SWAP2 DUP2 MSTORE PUSH1 0x20 ADD SWAP1 JUMP JUMPDEST PUSH1 0x40 MLOAD DUP1 SWAP2 SUB SWAP1 LOG3 JUMPDEST DUP1 PUSH2 0x903 DUP2 PUSH2 0x1529 JUMP JUMPDEST SWAP2 POP POP PUSH2 0x787 JUMP JUMPDEST POP POP PUSH2 0x924 PUSH1 0x1 PUSH1 0x0 DUP1 MLOAD PUSH1 0x20 PUSH2 0x15F8 DUP4 CODECOPY DUP2 MLOAD SWAP2 MSTORE SSTORE JUMP JUMPDEST POP POP POP POP POP JUMP JUMPDEST PUSH2 0x933 PUSH2 0x10F4 JUMP JUMPDEST PUSH1 0x0 DUP2 DUP2 MSTORE PUSH1 0x5 PUSH1 0x20 MSTORE PUSH1 0x40 SWAP1 KECCAK256 SLOAD PUSH1 0xFF AND PUSH2 0x991 JUMPI PUSH1 0x40 MLOAD PUSH3 0x461BCD PUSH1 0xE5 SHL DUP2 MSTORE PUSH1 0x20 PUSH1 0x4 DUP3 ADD DUP2 SWAP1 MSTORE PUSH1 0x24 DUP3 ADD MSTORE PUSH32 0x4172656E615661756C743A2066756E6473206E6F7420726F7574656420796574 PUSH1 0x44 DUP3 ADD MSTORE PUSH1 0x64 ADD PUSH2 0x3C2 JUMP JUMPDEST PUSH1 0x0 DUP2 DUP2 MSTORE PUSH1 0x4 PUSH1 0x20 MSTORE PUSH1 0x40 SWAP1 KECCAK256 SLOAD PUSH1 0xFF AND ISZERO PUSH2 0x9F0 JUMPI PUSH1 0x40 MLOAD PUSH3 0x461BCD PUSH1 0xE5 SHL DUP2 MSTORE PUSH1 0x20 PUSH1 0x4 DUP3 ADD MSTORE PUSH1 0x1F PUSH1 0x24 DUP3 ADD MSTORE PUSH32 0x4172656E615661756C743A207061796F757420616C726561647920646F6E6500 PUSH1 0x44 DUP3 ADD MSTORE PUSH1 0x64 ADD PUSH2 0x3C2 JUMP JUMPDEST PUSH1 0x0 DUP2 DUP2 MSTORE PUSH1 0x3 PUSH1 0x20 MSTORE PUSH1 0x40 SWAP1 KECCAK256 SLOAD PUSH2 0xA0D SWAP1 PUSH3 0x2A300 SWAP1 PUSH2 0x149D JUMP JUMPDEST TIMESTAMP LT ISZERO PUSH2 0xA5C JUMPI PUSH1 0x40 MLOAD PUSH3 0x461BCD PUSH1 0xE5 SHL DUP2 MSTORE PUSH1 0x20 PUSH1 0x4 DUP3 ADD MSTORE PUSH1 0x1F PUSH1 0x24 DUP3 ADD MSTORE PUSH32 0x4172656E615661756C743A2074696D656F7574206E6F74207265616368656400 PUSH1 0x44 DUP3 ADD MSTORE PUSH1 0x64 ADD PUSH2 0x3C2 JUMP JUMPDEST PUSH1 0x0 DUP2 DUP2 MSTORE PUSH1 0x1 PUSH1 0x20 SWAP1 DUP2 MSTORE PUSH1 0x40 DUP1 DUP4 KECCAK256 CALLER DUP5 MSTORE SWAP1 SWAP2 MSTORE SWAP1 KECCAK256 SLOAD DUP1 PUSH2 0xABC JUMPI PUSH1 0x40 MLOAD PUSH3 0x461BCD PUSH1 0xE5 SHL DUP2 MSTORE PUSH1 0x20 PUSH1 0x4 DUP3 ADD MSTORE PUSH1 0x16 PUSH1 0x24 DUP3 ADD MSTORE PUSH22 0x105C995B9855985D5B1D0E881B9BC819195C1BDCDA5D PUSH1 0x52 SHL PUSH1 0x44 DUP3 ADD MSTORE PUSH1 0x64 ADD PUSH2 0x3C2 JUMP JUMPDEST PUSH1 0x0 DUP3 DUP2 MSTORE PUSH1 0x2 PUSH1 0x20 MSTORE PUSH1 0x40 DUP1 DUP3 KECCAK256 SLOAD SWAP1 MLOAD PUSH4 0x70A08231 PUSH1 0xE0 SHL DUP2 MSTORE ADDRESS PUSH1 0x4 DUP3 ADD MSTORE SWAP1 SWAP2 SWAP1 PUSH32 0x0 PUSH1 0x1 PUSH1 0x1 PUSH1 0xA0 SHL SUB AND SWAP1 PUSH4 0x70A08231 SWAP1 PUSH1 0x24 ADD PUSH1 0x20 PUSH1 0x40 MLOAD DUP1 DUP4 SUB DUP2 DUP7 GAS STATICCALL ISZERO DUP1 ISZERO PUSH2 0xB32 JUMPI RETURNDATASIZE PUSH1 0x0 DUP1 RETURNDATACOPY RETURNDATASIZE PUSH1 0x0 REVERT JUMPDEST POP POP POP POP PUSH1 0x40 MLOAD RETURNDATASIZE PUSH1 0x1F NOT PUSH1 0x1F DUP3 ADD AND DUP3 ADD DUP1 PUSH1 0x40 MSTORE POP DUP2 ADD SWAP1 PUSH2 0xB56 SWAP2 SWAP1 PUSH2 0x14E7 JUMP JUMPDEST SWAP1 POP PUSH1 0x0 DUP3 PUSH2 0xB65 DUP6 DUP5 PUSH2 0x1542 JUMP JUMPDEST PUSH2 0xB6F SWAP2 SWAP1 PUSH2 0x1559 JUMP JUMPDEST PUSH1 0x0 DUP7 DUP2 MSTORE PUSH1 0x1 PUSH1 0x20 SWAP1 DUP2 MSTORE PUSH1 0x40 DUP1 DUP4 KECCAK256 CALLER DUP5 MSTORE SWAP1 SWAP2 MSTORE DUP2 KECCAK256 SSTORE SWAP1 POP DUP1 ISZERO PUSH2 0xBC5 JUMPI PUSH2 0xBC5 PUSH1 0x1 PUSH1 0x1 PUSH1 0xA0 SHL SUB PUSH32 0x0 AND CALLER DUP4 PUSH2 0x114C JUMP JUMPDEST PUSH1 0x40 MLOAD DUP2 DUP2 MSTORE CALLER SWAP1 DUP7 SWAP1 PUSH32 0xD3E69353709A7DCAAB28B44353B592C552CD797C95FFB523F924C0A16B4A2C2B SWAP1 PUSH1 0x20 ADD PUSH1 0x40 MLOAD DUP1 SWAP2 SUB SWAP1 LOG3 POP POP POP POP PUSH2 0x555 PUSH1 0x1 PUSH1 0x0 DUP1 MLOAD PUSH1 0x20 PUSH2 0x15F8 DUP4 CODECOPY DUP2 MLOAD SWAP2 MSTORE SSTORE JUMP JUMPDEST PUSH2 0xC1F PUSH2 0x10F4 JUMP JUMPDEST PUSH1 0x0 DUP2 DUP2 MSTORE PUSH1 0x5 PUSH1 0x20 MSTORE PUSH1 0x40 SWAP1 KECCAK256 SLOAD PUSH1 0xFF AND ISZERO PUSH2 0xC4E JUMPI PUSH1 0x40 MLOAD PUSH3 0x461BCD PUSH1 0xE5 SHL DUP2 MSTORE PUSH1 0x4 ADD PUSH2 0x3C2 SWAP1 PUSH2 0x13FB JUMP JUMPDEST PUSH1 0x0 DUP2 DUP2 MSTORE PUSH1 0x4 PUSH1 0x20 MSTORE PUSH1 0x40 SWAP1 KECCAK256 SLOAD PUSH1 0xFF AND ISZERO PUSH2 0xC7D JUMPI PUSH1 0x40 MLOAD PUSH3 0x461BCD PUSH1 0xE5 SHL DUP2 MSTORE PUSH1 0x4 ADD PUSH2 0x3C2 SWAP1 PUSH2 0x1442 JUMP JUMPDEST PUSH3 0x7A120 PUSH2 0xCB6 PUSH1 0x1 PUSH1 0x1 PUSH1 0xA0 SHL SUB PUSH32 0x0 AND CALLER ADDRESS DUP5 PUSH2 0x1110 JUMP JUMPDEST PUSH1 0x0 DUP3 DUP2 MSTORE PUSH1 0x1 PUSH1 0x20 SWAP1 DUP2 MSTORE PUSH1 0x40 DUP1 DUP4 KECCAK256 CALLER DUP5 MSTORE SWAP1 SWAP2 MSTORE DUP2 KECCAK256 DUP1 SLOAD DUP4 SWAP3 SWAP1 PUSH2 0xCDF SWAP1 DUP5 SWAP1 PUSH2 0x149D JUMP JUMPDEST SWAP1 SWAP2 SSTORE POP POP PUSH1 0x0 DUP3 DUP2 MSTORE PUSH1 0x2 PUSH1 0x20 MSTORE PUSH1 0x40 DUP2 KECCAK256 DUP1 SLOAD DUP4 SWAP3 SWAP1 PUSH2 0xD02 SWAP1 DUP5 SWAP1 PUSH2 0x149D JUMP JUMPDEST SWAP1 SWAP2 SSTORE POP POP PUSH1 0x40 MLOAD DUP2 DUP2 MSTORE CALLER SWAP1 DUP4 SWAP1 PUSH32 0x87D4C0B5E30D6808BC8A94BA1C4D839B29D664151551A31753387EE9EF48429B SWAP1 PUSH1 0x20 ADD PUSH1 0x40 MLOAD DUP1 SWAP2 SUB SWAP1 LOG3 POP PUSH2 0x555 PUSH1 0x1 PUSH1 0x0 DUP1 MLOAD PUSH1 0x20 PUSH2 0x15F8 DUP4 CODECOPY DUP2 MLOAD SWAP2 MSTORE SSTORE JUMP JUMPDEST PUSH1 0x0 SLOAD PUSH1 0x1 PUSH1 0x1 PUSH1 0xA0 SHL SUB AND CALLER EQ PUSH2 0xD80 JUMPI PUSH1 0x40 MLOAD PUSH3 0x461BCD PUSH1 0xE5 SHL DUP2 MSTORE PUSH1 0x4 ADD PUSH2 0x3C2 SWAP1 PUSH2 0x14B0 JUMP JUMPDEST PUSH1 0x1 PUSH1 0x1 PUSH1 0xA0 SHL SUB DUP2 AND PUSH2 0xDD6 JUMPI PUSH1 0x40 MLOAD PUSH3 0x461BCD PUSH1 0xE5 SHL DUP2 MSTORE PUSH1 0x20 PUSH1 0x4 DUP3 ADD MSTORE PUSH1 0x18 PUSH1 0x24 DUP3 ADD MSTORE PUSH32 0x4172656E615661756C743A207A65726F20616464726573730000000000000000 PUSH1 0x44 DUP3 ADD MSTORE PUSH1 0x64 ADD PUSH2 0x3C2 JUMP JUMPDEST PUSH1 0x0 DUP1 SLOAD PUSH1 0x40 MLOAD PUSH1 0x1 PUSH1 0x1 PUSH1 0xA0 SHL SUB DUP1 DUP6 AND SWAP4 SWAP3 AND SWAP2 PUSH32 0xD58299B712891143E76310D5E664C4203C940A67DB37CF856BDAA3C5C76A802C SWAP2 LOG3 PUSH1 0x0 DUP1 SLOAD PUSH1 0x1 PUSH1 0x1 PUSH1 0xA0 SHL SUB NOT AND PUSH1 0x1 PUSH1 0x1 PUSH1 0xA0 SHL SUB SWAP3 SWAP1 SWAP3 AND SWAP2 SWAP1 SWAP2 OR SWAP1 SSTORE JUMP JUMPDEST PUSH1 0x0 DUP3 DUP2 MSTORE PUSH1 0x1 PUSH1 0x20 SWAP1 DUP2 MSTORE PUSH1 0x40 DUP1 DUP4 KECCAK256 PUSH1 0x1 PUSH1 0x1 PUSH1 0xA0 SHL SUB DUP6 AND DUP5 MSTORE SWAP1 SWAP2 MSTORE SWAP1 KECCAK256 SLOAD JUMPDEST SWAP3 SWAP2 POP POP JUMP JUMPDEST PUSH1 0x0 SLOAD PUSH1 0x1 PUSH1 0x1 PUSH1 0xA0 SHL SUB AND CALLER EQ PUSH2 0xE85 JUMPI PUSH1 0x40 MLOAD PUSH3 0x461BCD PUSH1 0xE5 SHL DUP2 MSTORE PUSH1 0x4 ADD PUSH2 0x3C2 SWAP1 PUSH2 0x14B0 JUMP JUMPDEST PUSH2 0xE8D PUSH2 0x10F4 JUMP JUMPDEST PUSH1 0x0 DUP6 DUP2 MSTORE PUSH1 0x5 PUSH1 0x20 MSTORE PUSH1 0x40 SWAP1 KECCAK256 SLOAD PUSH1 0xFF AND ISZERO PUSH2 0xEEC JUMPI PUSH1 0x40 MLOAD PUSH3 0x461BCD PUSH1 0xE5 SHL DUP2 MSTORE PUSH1 0x20 PUSH1 0x4 DUP3 ADD MSTORE PUSH1 0x1A PUSH1 0x24 DUP3 ADD MSTORE PUSH32 0x4172656E615661756C743A20616C726561647920726F75746564000000000000 PUSH1 0x44 DUP3 ADD MSTORE PUSH1 0x64 ADD PUSH2 0x3C2 JUMP JUMPDEST DUP3 DUP2 EQ PUSH2 0xF3B JUMPI PUSH1 0x40 MLOAD PUSH3 0x461BCD PUSH1 0xE5 SHL DUP2 MSTORE PUSH1 0x20 PUSH1 0x4 DUP3 ADD MSTORE PUSH1 0x1B PUSH1 0x24 DUP3 ADD MSTORE PUSH32 0x4172656E615661756C743A206C656E677468206D69736D617463680000000000 PUSH1 0x44 DUP3 ADD MSTORE PUSH1 0x64 ADD PUSH2 0x3C2 JUMP JUMPDEST DUP3 PUSH2 0xF83 JUMPI PUSH1 0x40 MLOAD PUSH3 0x461BCD PUSH1 0xE5 SHL DUP2 MSTORE PUSH1 0x20 PUSH1 0x4 DUP3 ADD MSTORE PUSH1 0x18 PUSH1 0x24 DUP3 ADD MSTORE PUSH24 0x4172656E615661756C743A20656D70747920617272617973 PUSH1 0x40 SHL PUSH1 0x44 DUP3 ADD MSTORE PUSH1 0x64 ADD PUSH2 0x3C2 JUMP JUMPDEST PUSH1 0x0 DUP1 JUMPDEST DUP3 DUP2 LT ISZERO PUSH2 0xFC7 JUMPI DUP4 DUP4 DUP3 DUP2 DUP2 LT PUSH2 0xFA1 JUMPI PUSH2 0xFA1 PUSH2 0x1500 JUMP JUMPDEST SWAP1 POP PUSH1 0x20 MUL ADD CALLDATALOAD DUP3 PUSH2 0xFB3 SWAP2 SWAP1 PUSH2 0x149D JUMP JUMPDEST SWAP2 POP DUP1 PUSH2 0xFBF DUP2 PUSH2 0x1529 JUMP JUMPDEST SWAP2 POP POP PUSH2 0xF87 JUMP JUMPDEST POP PUSH1 0x0 DUP7 DUP2 MSTORE PUSH1 0x2 PUSH1 0x20 MSTORE PUSH1 0x40 SWAP1 KECCAK256 SLOAD DUP2 GT ISZERO PUSH2 0x1026 JUMPI PUSH1 0x40 MLOAD PUSH3 0x461BCD PUSH1 0xE5 SHL DUP2 MSTORE PUSH1 0x20 PUSH1 0x4 DUP3 ADD MSTORE PUSH1 0x1D PUSH1 0x24 DUP3 ADD MSTORE PUSH32 0x4172656E615661756C743A20696E73756666696369656E7420706F6F6C000000 PUSH1 0x44 DUP3 ADD MSTORE PUSH1 0x64 ADD PUSH2 0x3C2 JUMP JUMPDEST PUSH1 0x0 DUP7 DUP2 MSTORE PUSH1 0x5 PUSH1 0x20 SWAP1 DUP2 MSTORE PUSH1 0x40 DUP1 DUP4 KECCAK256 DUP1 SLOAD PUSH1 0xFF NOT AND PUSH1 0x1 OR SWAP1 SSTORE PUSH1 0x3 SWAP1 SWAP2 MSTORE DUP2 KECCAK256 TIMESTAMP SWAP1 SSTORE JUMPDEST DUP5 DUP2 LT ISZERO PUSH2 0x109D JUMPI PUSH1 0x0 DUP5 DUP5 DUP4 DUP2 DUP2 LT PUSH2 0x1069 JUMPI PUSH2 0x1069 PUSH2 0x1500 JUMP JUMPDEST SWAP1 POP PUSH1 0x20 MUL ADD CALLDATALOAD GT ISZERO PUSH2 0x108B JUMPI PUSH2 0x108B DUP7 DUP7 DUP4 DUP2 DUP2 LT PUSH2 0x7E9 JUMPI PUSH2 0x7E9 PUSH2 0x1500 JUMP JUMPDEST DUP1 PUSH2 0x1095 DUP2 PUSH2 0x1529 JUMP JUMPDEST SWAP2 POP POP PUSH2 0x104D JUMP JUMPDEST POP DUP6 PUSH32 0x7A303D3A0496025AC9B54FC00E741FBB72CBFE9D616C0E9E5481EED3FC99F614 DUP7 DUP7 DUP7 DUP7 PUSH1 0x40 MLOAD PUSH2 0x10D4 SWAP5 SWAP4 SWAP3 SWAP2 SWAP1 PUSH2 0x157B JUMP JUMPDEST PUSH1 0x40 MLOAD DUP1 SWAP2 SUB SWAP1 LOG2 POP PUSH2 0x924 PUSH1 0x1 PUSH1 0x0 DUP1 MLOAD PUSH1 0x20 PUSH2 0x15F8 DUP4 CODECOPY DUP2 MLOAD SWAP2 MSTORE SSTORE JUMP JUMPDEST PUSH2 0x10FC PUSH2 0x1186 JUMP JUMPDEST PUSH1 0x2 PUSH1 0x0 DUP1 MLOAD PUSH1 0x20 PUSH2 0x15F8 DUP4 CODECOPY DUP2 MLOAD SWAP2 MSTORE SSTORE JUMP JUMPDEST PUSH2 0x111E DUP5 DUP5 DUP5 DUP5 PUSH1 0x1 PUSH2 0x11B8 JUMP JUMPDEST PUSH2 0x1146 JUMPI PUSH1 0x40 MLOAD PUSH4 0x5274AFE7 PUSH1 0xE0 SHL DUP2 MSTORE PUSH1 0x1 PUSH1 0x1 PUSH1 0xA0 SHL SUB DUP6 AND PUSH1 0x4 DUP3 ADD MSTORE PUSH1 0x24 ADD PUSH2 0x3C2 JUMP JUMPDEST POP POP POP POP JUMP JUMPDEST PUSH2 0x1159 DUP4 DUP4 DUP4 PUSH1 0x1 PUSH2 0x122A JUMP JUMPDEST PUSH2 0x1181 JUMPI PUSH1 0x40 MLOAD PUSH4 0x5274AFE7 PUSH1 0xE0 SHL DUP2 MSTORE PUSH1 0x1 PUSH1 0x1 PUSH1 0xA0 SHL SUB DUP5 AND PUSH1 0x4 DUP3 ADD MSTORE PUSH1 0x24 ADD PUSH2 0x3C2 JUMP JUMPDEST POP POP POP JUMP JUMPDEST PUSH1 0x0 DUP1 MLOAD PUSH1 0x20 PUSH2 0x15F8 DUP4 CODECOPY DUP2 MLOAD SWAP2 MSTORE SLOAD PUSH1 0x2 SUB PUSH2 0x11B6 JUMPI PUSH1 0x40 MLOAD PUSH4 0x3EE5AEB5 PUSH1 0xE0 SHL DUP2 MSTORE PUSH1 0x4 ADD PUSH1 0x40 MLOAD DUP1 SWAP2 SUB SWAP1 REVERT JUMPDEST JUMP JUMPDEST PUSH1 0x40 MLOAD PUSH4 0x23B872DD PUSH1 0xE0 SHL PUSH1 0x0 DUP2 DUP2 MSTORE PUSH1 0x1 PUSH1 0x1 PUSH1 0xA0 SHL SUB DUP8 DUP2 AND PUSH1 0x4 MSTORE DUP7 AND PUSH1 0x24 MSTORE PUSH1 0x44 DUP6 SWAP1 MSTORE SWAP2 PUSH1 0x20 DUP4 PUSH1 0x64 DUP2 DUP1 DUP13 GAS CALL SWAP3 POP PUSH1 0x1 PUSH1 0x0 MLOAD EQ DUP4 AND PUSH2 0x1218 JUMPI DUP4 DUP4 ISZERO AND ISZERO PUSH2 0x120B JUMPI RETURNDATASIZE PUSH1 0x0 DUP3 RETURNDATACOPY RETURNDATASIZE DUP2 REVERT JUMPDEST PUSH1 0x0 DUP9 EXTCODESIZE GT RETURNDATASIZE ISZERO AND DUP4 AND SWAP3 POP JUMPDEST PUSH1 0x40 MSTORE POP PUSH1 0x0 PUSH1 0x60 MSTORE SWAP6 SWAP5 POP POP POP POP POP JUMP JUMPDEST PUSH1 0x40 MLOAD PUSH4 0xA9059CBB PUSH1 0xE0 SHL PUSH1 0x0 DUP2 DUP2 MSTORE PUSH1 0x1 PUSH1 0x1 PUSH1 0xA0 SHL SUB DUP7 AND PUSH1 0x4 MSTORE PUSH1 0x24 DUP6 SWAP1 MSTORE SWAP2 PUSH1 0x20 DUP4 PUSH1 0x44 DUP2 DUP1 DUP12 GAS CALL SWAP3 POP PUSH1 0x1 PUSH1 0x0 MLOAD EQ DUP4 AND PUSH2 0x1284 JUMPI DUP4 DUP4 ISZERO AND ISZERO PUSH2 0x1277 JUMPI RETURNDATASIZE PUSH1 0x0 DUP3 RETURNDATACOPY RETURNDATASIZE DUP2 REVERT JUMPDEST PUSH1 0x0 DUP8 EXTCODESIZE GT RETURNDATASIZE ISZERO AND DUP4 AND SWAP3 POP JUMPDEST PUSH1 0x40 MSTORE POP SWAP5 SWAP4 POP POP POP POP JUMP JUMPDEST PUSH1 0x0 PUSH1 0x20 DUP3 DUP5 SUB SLT ISZERO PUSH2 0x12A2 JUMPI PUSH1 0x0 DUP1 REVERT JUMPDEST POP CALLDATALOAD SWAP2 SWAP1 POP JUMP JUMPDEST PUSH1 0x0 DUP1 PUSH1 0x40 DUP4 DUP6 SUB SLT ISZERO PUSH2 0x12BC JUMPI PUSH1 0x0 DUP1 REVERT JUMPDEST POP POP DUP1 CALLDATALOAD SWAP3 PUSH1 0x20 SWAP1 SWAP2 ADD CALLDATALOAD SWAP2 POP JUMP JUMPDEST DUP1 CALLDATALOAD PUSH1 0x1 PUSH1 0x1 PUSH1 0xA0 SHL SUB DUP2 AND DUP2 EQ PUSH2 0x12E2 JUMPI PUSH1 0x0 DUP1 REVERT JUMPDEST SWAP2 SWAP1 POP JUMP JUMPDEST PUSH1 0x0 DUP1 PUSH1 0x40 DUP4 DUP6 SUB SLT ISZERO PUSH2 0x12FA JUMPI PUSH1 0x0 DUP1 REVERT JUMPDEST DUP3 CALLDATALOAD SWAP2 POP PUSH2 0x130A PUSH1 0x20 DUP5 ADD PUSH2 0x12CB JUMP JUMPDEST SWAP1 POP SWAP3 POP SWAP3 SWAP1 POP JUMP JUMPDEST PUSH1 0x0 DUP1 DUP4 PUSH1 0x1F DUP5 ADD SLT PUSH2 0x1325 JUMPI PUSH1 0x0 DUP1 REVERT JUMPDEST POP DUP2 CALLDATALOAD PUSH8 0xFFFFFFFFFFFFFFFF DUP2 GT ISZERO PUSH2 0x133D JUMPI PUSH1 0x0 DUP1 REVERT JUMPDEST PUSH1 0x20 DUP4 ADD SWAP2 POP DUP4 PUSH1 0x20 DUP3 PUSH1 0x5 SHL DUP6 ADD ADD GT ISZERO PUSH2 0x1358 JUMPI PUSH1 0x0 DUP1 REVERT JUMPDEST SWAP3 POP SWAP3 SWAP1 POP JUMP JUMPDEST PUSH1 0x0 DUP1 PUSH1 0x0 DUP1 PUSH1 0x0 PUSH1 0x60 DUP7 DUP9 SUB SLT ISZERO PUSH2 0x1377 JUMPI PUSH1 0x0 DUP1 REVERT JUMPDEST DUP6 CALLDATALOAD SWAP5 POP PUSH1 0x20 DUP7 ADD CALLDATALOAD PUSH8 0xFFFFFFFFFFFFFFFF DUP1 DUP3 GT ISZERO PUSH2 0x1396 JUMPI PUSH1 0x0 DUP1 REVERT JUMPDEST PUSH2 0x13A2 DUP10 DUP4 DUP11 ADD PUSH2 0x1313 JUMP JUMPDEST SWAP1 SWAP7 POP SWAP5 POP PUSH1 0x40 DUP9 ADD CALLDATALOAD SWAP2 POP DUP1 DUP3 GT ISZERO PUSH2 0x13BB JUMPI PUSH1 0x0 DUP1 REVERT JUMPDEST POP PUSH2 0x13C8 DUP9 DUP3 DUP10 ADD PUSH2 0x1313 JUMP JUMPDEST SWAP7 SWAP10 SWAP6 SWAP9 POP SWAP4 SWAP7 POP SWAP3 SWAP5 SWAP4 SWAP3 POP POP POP JUMP JUMPDEST PUSH1 0x0 PUSH1 0x20 DUP3 DUP5 SUB SLT ISZERO PUSH2 0x13EB JUMPI PUSH1 0x0 DUP1 REVERT JUMPDEST PUSH2 0x13F4 DUP3 PUSH2 0x12CB JUMP JUMPDEST SWAP4 SWAP3 POP POP POP JUMP JUMPDEST PUSH1 0x20 DUP1 DUP3 MSTORE PUSH1 0x27 SWAP1 DUP3 ADD MSTORE PUSH32 0x4172656E615661756C743A20636F6D7065746974696F6E20616C726561647920 PUSH1 0x40 DUP3 ADD MSTORE PUSH7 0x1CDD185C9D1959 PUSH1 0xCA SHL PUSH1 0x60 DUP3 ADD MSTORE PUSH1 0x80 ADD SWAP1 JUMP JUMPDEST PUSH1 0x20 DUP1 DUP3 MSTORE PUSH1 0x25 SWAP1 DUP3 ADD MSTORE PUSH32 0x4172656E615661756C743A20636F6D7065746974696F6E20616C726561647920 PUSH1 0x40 DUP3 ADD MSTORE PUSH5 0x195B991959 PUSH1 0xDA SHL PUSH1 0x60 DUP3 ADD MSTORE PUSH1 0x80 ADD SWAP1 JUMP JUMPDEST PUSH4 0x4E487B71 PUSH1 0xE0 SHL PUSH1 0x0 MSTORE PUSH1 0x11 PUSH1 0x4 MSTORE PUSH1 0x24 PUSH1 0x0 REVERT JUMPDEST DUP1 DUP3 ADD DUP1 DUP3 GT ISZERO PUSH2 0xE55 JUMPI PUSH2 0xE55 PUSH2 0x1487 JUMP JUMPDEST PUSH1 0x20 DUP1 DUP3 MSTORE PUSH1 0x18 SWAP1 DUP3 ADD MSTORE PUSH32 0x4172656E615661756C743A206E6F74206F70657261746F720000000000000000 PUSH1 0x40 DUP3 ADD MSTORE PUSH1 0x60 ADD SWAP1 JUMP JUMPDEST PUSH1 0x0 PUSH1 0x20 DUP3 DUP5 SUB SLT ISZERO PUSH2 0x14F9 JUMPI PUSH1 0x0 DUP1 REVERT JUMPDEST POP MLOAD SWAP2 SWAP1 POP JUMP JUMPDEST PUSH4 0x4E487B71 PUSH1 0xE0 SHL PUSH1 0x0 MSTORE PUSH1 0x32 PUSH1 0x4 MSTORE PUSH1 0x24 PUSH1 0x0 REVERT JUMPDEST DUP2 DUP2 SUB DUP2 DUP2 GT ISZERO PUSH2 0xE55 JUMPI PUSH2 0xE55 PUSH2 0x1487 JUMP JUMPDEST PUSH1 0x0 PUSH1 0x1 DUP3 ADD PUSH2 0x153B JUMPI PUSH2 0x153B PUSH2 0x1487 JUMP JUMPDEST POP PUSH1 0x1 ADD SWAP1 JUMP JUMPDEST DUP1 DUP3 MUL DUP2 ISZERO DUP3 DUP3 DIV DUP5 EQ OR PUSH2 0xE55 JUMPI PUSH2 0xE55 PUSH2 0x1487 JUMP JUMPDEST PUSH1 0x0 DUP3 PUSH2 0x1576 JUMPI PUSH4 0x4E487B71 PUSH1 0xE0 SHL PUSH1 0x0 MSTORE PUSH1 0x12 PUSH1 0x4 MSTORE PUSH1 0x24 PUSH1 0x0 REVERT JUMPDEST POP DIV SWAP1 JUMP JUMPDEST PUSH1 0x40 DUP1 DUP3 MSTORE DUP2 ADD DUP5 SWAP1 MSTORE PUSH1 0x0 DUP6 PUSH1 0x60 DUP4 ADD DUP3 JUMPDEST DUP8 DUP2 LT ISZERO PUSH2 0x15BC JUMPI PUSH1 0x1 PUSH1 0x1 PUSH1 0xA0 SHL SUB PUSH2 0x15A7 DUP5 PUSH2 0x12CB JUMP JUMPDEST AND DUP3 MSTORE PUSH1 0x20 SWAP3 DUP4 ADD SWAP3 SWAP1 SWAP2 ADD SWAP1 PUSH1 0x1 ADD PUSH2 0x158E JUMP JUMPDEST POP DUP4 DUP2 SUB PUSH1 0x20 DUP6 ADD MSTORE DUP5 DUP2 MSTORE PUSH1 0x1 PUSH1 0x1 PUSH1 0xFB SHL SUB DUP6 GT ISZERO PUSH2 0x15DC JUMPI PUSH1 0x0 DUP1 REVERT JUMPDEST DUP5 PUSH1 0x5 SHL SWAP2 POP DUP2 DUP7 PUSH1 0x20 DUP4 ADD CALLDATACOPY ADD PUSH1 0x20 ADD SWAP7 SWAP6 POP POP POP POP POP POP JUMP INVALID SWAP12 PUSH24 0x9B17422D0DF92223018B32B4D1FA46E071723D6817E2486D STOP EXTCODESIZE 0xEC 0xC5 PUSH0 STOP LOG2 PUSH5 0x6970667358 0x22 SLT KECCAK256 0x29 MLOAD 0xE2 SWAP2 0x24 PUSH20 0x20C2753AB4DCD2FB23B0353D0418FC1E6EBB9CC7 CALLDATASIZE PUSH0 0xE5 EXP 0xDE 0xA5 PUSH5 0x736F6C6343 STOP ADDMOD EQ STOP CALLER "},"methodIdentifiers":{"EMERGENCY_TIMEOUT()":"7f264076","MINIMUM_ENTRY()":"1f502571","arenaStartTime(bytes32)":"b733f155","deposit(bytes32)":"b214faa5","depositAmount(bytes32,uint256)":"118279f2","deposits(bytes32,address)":"4f1c2c31","distributePayout(bytes32,address[],uint256[])":"6de1bdfe","emergencyWithdraw(bytes32)":"75870d65","fundsRouted(bytes32)":"e9929c95","getDeposit(bytes32,address)":"d0f4089a","getPooledFunds(bytes32)":"39b15b54","isArenaStarted(bytes32)":"a3a7c1f8","isPayoutDone(bytes32)":"0ec9212f","operator()":"570ca735","payoutDistributed(bytes32)":"77388e19","pooledFunds(bytes32)":"c3ca17d9","returnFunds(uint256)":"45755dd6","routeFunds(bytes32,address[],uint256[])":"e7229a85","setOperator(address)":"b3ab15fb","usdc()":"3e413bee"}}}}}